{
  "contractName": "MultiPartyEscrow",
  "abi": [
    {
      "constant": true,
      "inputs": [
        {
          "name": "",
          "type": "address"
        }
      ],
      "name": "balances",
      "outputs": [
        {
          "name": "",
          "type": "uint256"
        }
      ],
      "payable": false,
      "stateMutability": "view",
      "type": "function"
    },
    {
      "constant": true,
      "inputs": [
        {
          "name": "",
          "type": "uint256"
        }
      ],
      "name": "channels",
      "outputs": [
        {
          "name": "sender",
          "type": "address"
        },
        {
          "name": "recipient",
          "type": "address"
        },
        {
          "name": "groupId",
          "type": "bytes32"
        },
        {
          "name": "value",
          "type": "uint256"
        },
        {
          "name": "nonce",
          "type": "uint256"
        },
        {
          "name": "expiration",
          "type": "uint256"
        },
        {
          "name": "signer",
          "type": "address"
        }
      ],
      "payable": false,
      "stateMutability": "view",
      "type": "function"
    },
    {
      "constant": true,
      "inputs": [],
      "name": "nextChannelId",
      "outputs": [
        {
          "name": "",
          "type": "uint256"
        }
      ],
      "payable": false,
      "stateMutability": "view",
      "type": "function"
    },
    {
      "constant": true,
      "inputs": [],
      "name": "token",
      "outputs": [
        {
          "name": "",
          "type": "address"
        }
      ],
      "payable": false,
      "stateMutability": "view",
      "type": "function"
    },
    {
      "inputs": [
        {
          "name": "_token",
          "type": "address"
        }
      ],
      "payable": false,
      "stateMutability": "nonpayable",
      "type": "constructor"
    },
    {
      "anonymous": false,
      "inputs": [
        {
          "indexed": false,
          "name": "channelId",
          "type": "uint256"
        },
        {
          "indexed": true,
          "name": "sender",
          "type": "address"
        },
        {
          "indexed": true,
          "name": "recipient",
          "type": "address"
        },
        {
          "indexed": true,
          "name": "groupId",
          "type": "bytes32"
        },
        {
          "indexed": false,
          "name": "signer",
          "type": "address"
        },
        {
          "indexed": false,
          "name": "amount",
          "type": "uint256"
        },
        {
          "indexed": false,
          "name": "expiration",
          "type": "uint256"
        }
      ],
      "name": "ChannelOpen",
      "type": "event"
    },
    {
      "anonymous": false,
      "inputs": [
        {
          "indexed": true,
          "name": "channelId",
          "type": "uint256"
        },
        {
          "indexed": true,
          "name": "recipient",
          "type": "address"
        },
        {
          "indexed": false,
          "name": "claimAmount",
          "type": "uint256"
        },
        {
          "indexed": false,
          "name": "sendBackAmount",
          "type": "uint256"
        },
        {
          "indexed": false,
          "name": "keepAmpount",
          "type": "uint256"
        }
      ],
      "name": "ChannelClaim",
      "type": "event"
    },
    {
      "anonymous": false,
      "inputs": [
        {
          "indexed": true,
          "name": "channelId",
          "type": "uint256"
        },
        {
          "indexed": false,
          "name": "claimAmount",
          "type": "uint256"
        }
      ],
      "name": "ChannelSenderClaim",
      "type": "event"
    },
    {
      "anonymous": false,
      "inputs": [
        {
          "indexed": true,
          "name": "channelId",
          "type": "uint256"
        },
        {
          "indexed": false,
          "name": "newExpiration",
          "type": "uint256"
        }
      ],
      "name": "ChannelExtend",
      "type": "event"
    },
    {
      "anonymous": false,
      "inputs": [
        {
          "indexed": true,
          "name": "channelId",
          "type": "uint256"
        },
        {
          "indexed": false,
          "name": "additionalFunds",
          "type": "uint256"
        }
      ],
      "name": "ChannelAddFunds",
      "type": "event"
    },
    {
      "anonymous": false,
      "inputs": [
        {
          "indexed": true,
          "name": "sender",
          "type": "address"
        },
        {
          "indexed": true,
          "name": "receiver",
          "type": "address"
        },
        {
          "indexed": false,
          "name": "amount",
          "type": "uint256"
        }
      ],
      "name": "TransferFunds",
      "type": "event"
    },
    {
      "constant": false,
      "inputs": [
        {
          "name": "value",
          "type": "uint256"
        }
      ],
      "name": "deposit",
      "outputs": [
        {
          "name": "",
          "type": "bool"
        }
      ],
      "payable": false,
      "stateMutability": "nonpayable",
      "type": "function"
    },
    {
      "constant": false,
      "inputs": [
        {
          "name": "value",
          "type": "uint256"
        }
      ],
      "name": "withdraw",
      "outputs": [
        {
          "name": "",
          "type": "bool"
        }
      ],
      "payable": false,
      "stateMutability": "nonpayable",
      "type": "function"
    },
    {
      "constant": false,
      "inputs": [
        {
          "name": "receiver",
          "type": "address"
        },
        {
          "name": "value",
          "type": "uint256"
        }
      ],
      "name": "transfer",
      "outputs": [
        {
          "name": "",
          "type": "bool"
        }
      ],
      "payable": false,
      "stateMutability": "nonpayable",
      "type": "function"
    },
    {
      "constant": false,
      "inputs": [
        {
          "name": "recipient",
          "type": "address"
        },
        {
          "name": "value",
          "type": "uint256"
        },
        {
          "name": "expiration",
          "type": "uint256"
        },
        {
          "name": "groupId",
          "type": "bytes32"
        },
        {
          "name": "signer",
          "type": "address"
        }
      ],
      "name": "openChannel",
      "outputs": [
        {
          "name": "",
          "type": "bool"
        }
      ],
      "payable": false,
      "stateMutability": "nonpayable",
      "type": "function"
    },
    {
      "constant": false,
      "inputs": [
        {
          "name": "recipient",
          "type": "address"
        },
        {
          "name": "value",
          "type": "uint256"
        },
        {
          "name": "expiration",
          "type": "uint256"
        },
        {
          "name": "groupId",
          "type": "bytes32"
        },
        {
          "name": "signer",
          "type": "address"
        }
      ],
      "name": "depositAndOpenChannel",
      "outputs": [
        {
          "name": "",
          "type": "bool"
        }
      ],
      "payable": false,
      "stateMutability": "nonpayable",
      "type": "function"
    },
    {
      "constant": false,
      "inputs": [
        {
          "name": "channelIds",
          "type": "uint256[]"
        },
        {
          "name": "amounts",
          "type": "uint256[]"
        },
        {
          "name": "isSendbacks",
          "type": "bool[]"
        },
        {
          "name": "v",
          "type": "uint8[]"
        },
        {
          "name": "r",
          "type": "bytes32[]"
        },
        {
          "name": "s",
          "type": "bytes32[]"
        }
      ],
      "name": "multiChannelClaim",
      "outputs": [],
      "payable": false,
      "stateMutability": "nonpayable",
      "type": "function"
    },
    {
      "constant": false,
      "inputs": [
        {
          "name": "channelId",
          "type": "uint256"
        },
        {
          "name": "amount",
          "type": "uint256"
        },
        {
          "name": "v",
          "type": "uint8"
        },
        {
          "name": "r",
          "type": "bytes32"
        },
        {
          "name": "s",
          "type": "bytes32"
        },
        {
          "name": "isSendback",
          "type": "bool"
        }
      ],
      "name": "channelClaim",
      "outputs": [],
      "payable": false,
      "stateMutability": "nonpayable",
      "type": "function"
    },
    {
      "constant": false,
      "inputs": [
        {
          "name": "channelId",
          "type": "uint256"
        },
        {
          "name": "newExpiration",
          "type": "uint256"
        }
      ],
      "name": "channelExtend",
      "outputs": [
        {
          "name": "",
          "type": "bool"
        }
      ],
      "payable": false,
      "stateMutability": "nonpayable",
      "type": "function"
    },
    {
      "constant": false,
      "inputs": [
        {
          "name": "channelId",
          "type": "uint256"
        },
        {
          "name": "amount",
          "type": "uint256"
        }
      ],
      "name": "channelAddFunds",
      "outputs": [
        {
          "name": "",
          "type": "bool"
        }
      ],
      "payable": false,
      "stateMutability": "nonpayable",
      "type": "function"
    },
    {
      "constant": false,
      "inputs": [
        {
          "name": "channelId",
          "type": "uint256"
        },
        {
          "name": "newExpiration",
          "type": "uint256"
        },
        {
          "name": "amount",
          "type": "uint256"
        }
      ],
      "name": "channelExtendAndAddFunds",
      "outputs": [],
      "payable": false,
      "stateMutability": "nonpayable",
      "type": "function"
    },
    {
      "constant": false,
      "inputs": [
        {
          "name": "channelId",
          "type": "uint256"
        }
      ],
      "name": "channelClaimTimeout",
      "outputs": [],
      "payable": false,
      "stateMutability": "nonpayable",
      "type": "function"
    }
  ],
  "bytecode": "0x608060405234801561001057600080fd5b50604051602080611160833981016040525160038054600160a060020a031916600160a060020a03909216919091179055611110806100506000396000f3006080604052600436106100da5763ffffffff7c01000000000000000000000000000000000000000000000000000000006000350416630c19d0ec81146100df57806327e235e3146100ff5780632911dce7146101325780632e1a7d4d1461017957806345059a5d14610191578063a9059cbb146101ac578063b6b55f25146101d0578063baea65b5146101e8578063c94fd86714610200578063d52ea81d1461022c578063da2a5b4f1461039e578063e5949b5d146103b9578063eedcc3801461041a578063f4606f001461044d578063fc0c546a14610462575b600080fd5b3480156100eb57600080fd5b506100fd600435602435604435610493565b005b34801561010b57600080fd5b50610120600160a060020a03600435166104c2565b60408051918252519081900360200190f35b34801561013e57600080fd5b50610165600160a060020a03600435811690602435906044359060643590608435166104d4565b604080519115158252519081900360200190f35b34801561018557600080fd5b5061016560043561050e565b34801561019d57600080fd5b5061016560043560243561060a565b3480156101b857600080fd5b50610165600160a060020a0360043516602435610691565b3480156101dc57600080fd5b5061016560043561075d565b3480156101f457600080fd5b506100fd6004356108ae565b34801561020c57600080fd5b506100fd60043560243560ff6044351660643560843560a4351515610941565b34801561023857600080fd5b50604080516020600480358082013583810280860185019096528085526100fd95369593946024949385019291829185019084908082843750506040805187358901803560208181028481018201909552818452989b9a998901989297509082019550935083925085019084908082843750506040805187358901803560208181028481018201909552818452989b9a998901989297509082019550935083925085019084908082843750506040805187358901803560208181028481018201909552818452989b9a998901989297509082019550935083925085019084908082843750506040805187358901803560208181028481018201909552818452989b9a998901989297509082019550935083925085019084908082843750506040805187358901803560208181028481018201909552818452989b9a998901989297509082019550935083925085019084908082843750949750610bfb9650505050505050565b3480156103aa57600080fd5b50610165600435602435610cf5565b3480156103c557600080fd5b506103d1600435610db3565b60408051600160a060020a0398891681529688166020880152868101959095526060860193909352608085019190915260a084015290921660c082015290519081900360e00190f35b34801561042657600080fd5b50610165600160a060020a0360043581169060243590604435906064359060843516610dfd565b34801561045957600080fd5b50610120610f8d565b34801561046e57600080fd5b50610477610f93565b60408051600160a060020a039092168252519081900360200190f35b61049d838361060a565b15156104a857600080fd5b6104b28382610cf5565b15156104bd57600080fd5b505050565b60016020526000908152604090205481565b60006104df8561075d565b15156104ea57600080fd5b6104f78686868686610dfd565b151561050257600080fd5b50600195945050505050565b3360009081526001602052604081205482111561052a57600080fd5b600354604080517fa9059cbb000000000000000000000000000000000000000000000000000000008152336004820152602481018590529051600160a060020a039092169163a9059cbb916044808201926020929091908290030181600087803b15801561059757600080fd5b505af11580156105ab573d6000803e3d6000fd5b505050506040513d60208110156105c157600080fd5b505115156105ce57600080fd5b336000908152600160205260409020546105ee908363ffffffff610fa216565b3360009081526001602081905260409091209190915592915050565b60008281526020819052604081208054600160a060020a0316331461062e57600080fd5b600581015483101561063f57600080fd5b600084815260208181526040918290206005018590558151858152915186927ff8d4e64f6b2b3db6aaf38b319e259285a48ecd0c5bc0115c9928aba297c7342092908290030190a25060019392505050565b336000908152600160205260408120548211156106ad57600080fd5b336000908152600160205260409020546106cd908363ffffffff610fa216565b3360009081526001602052604080822092909255600160a060020a038516815220546106ff908363ffffffff610fb416565b600160a060020a0384166000818152600160209081526040918290209390935580518581529051919233927f5a0155838afb0f859197785e575b9ad1afeb456c6e522b6f632ee8465941315e9281900390910190a350600192915050565b600354604080517f23b872dd000000000000000000000000000000000000000000000000000000008152336004820152306024820152604481018490529051600092600160a060020a0316916323b872dd91606480830192602092919082900301818787803b1580156107cf57600080fd5b505af11580156107e3573d6000803e3d6000fd5b505050506040513d60208110156107f957600080fd5b5051151561088e57604080517f08c379a000000000000000000000000000000000000000000000000000000000815260206004820152602860248201527f556e61626c6520746f207472616e7366657220746f6b656e20746f207468652060448201527f636f6e7472616374000000000000000000000000000000000000000000000000606482015290519081900360840190fd5b336000908152600160205260409020546105ee908363ffffffff610fb416565b600081815260208190526040902054600160a060020a031633146108d157600080fd5b6000818152602081905260409020600501544310156108ef57600080fd5b6108f881610fc7565b60008181526020818152604091829020600301548251908152915183927f10522b5c8770b85fe85ef3f007840ca9fc1bfa80b980dddc847e766a303f8cda92908290030190a250565b60008681526020819052604081206003810154909190819088111561096557600080fd5b6001830154600160a060020a0316331461097e57600080fd5b610a3f308a85600401548b6040516020018085600160a060020a0316600160a060020a03166c010000000000000000000000000281526014018481526020018381526020018281526020019450505050506040516020818303038152906040526040518082805190602001908083835b60208310610a0d5780518252601f1990920191602091820191016109ee565b6001836020036101000a038019825116818451168082178552505050505050905001915050604051809103902061103a565b604080516000808252602080830180855285905260ff8c1683850152606083018b9052608083018a9052925193955060019360a08084019493601f19830193908390039091019190865af1158015610a9b573d6000803e3d6000fd5b5050604051601f1901516006850154909250600160a060020a038084169116149050610ac657600080fd5b600089815260208190526040902060030154610ae8908963ffffffff610fa216565b60008a81526020818152604080832060030193909355338252600190522054610b17908963ffffffff610fb416565b336000908152600160205260409020558315610b8e57610b3689610fc7565b6000898152602081815260408083206003015481518c81529283015281810192909252905133918b917fbe89dadc951b7d901eb74681dc1a36e63ab3f366404a072e8eede90e5615b83f9181900360600190a3610bf0565b60008981526020818152604080832060048101805460010190556003015481518c81529283019390935281810192909252905133918b917fbe89dadc951b7d901eb74681dc1a36e63ab3f366404a072e8eede90e5615b83f9181900360600190a35b505050505050505050565b8551855160009082148015610c105750818651145b8015610c1c5750818551145b8015610c285750818451145b8015610c345750818351145b1515610c3f57600080fd5b5060005b81811015610ceb57610ce38882815181101515610c5c57fe5b906020019060200201518883815181101515610c7457fe5b906020019060200201518784815181101515610c8c57fe5b906020019060200201518785815181101515610ca457fe5b906020019060200201518786815181101515610cbc57fe5b906020019060200201518b87815181101515610cd457fe5b90602001906020020151610941565b600101610c43565b5050505050505050565b33600090815260016020526040812054821115610d1157600080fd5b33600090815260016020526040902054610d31908363ffffffff610fa216565b336000908152600160209081526040808320939093558582528190522060030154610d62908363ffffffff610fb416565b60008481526020818152604091829020600301929092558051848152905185927fb0e2286f86435d8f98d9cf1c908b693792eb905dd03cd40d2b1d23a3e5311a40928290030190a250600192915050565b6000602081905290815260409020805460018201546002830154600384015460048501546005860154600690960154600160a060020a039586169694861695939492939192911687565b33600090815260016020526040812054851115610e1957600080fd5b600160a060020a0382161515610e2e57600080fd5b6040805160e08101825233808252600160a060020a038981166020808501918252848601898152606086018c815260006080880181815260a089018e81528c881660c08b019081526002805485528488528c85209b518c54908b1673ffffffffffffffffffffffffffffffffffffffff19918216178d5598516001808e018054928d16928c16929092179091559651908c0155935160038b0155905160048a0155516005890155905160069097018054979095169690931695909517909255918252919091522054610f06908663ffffffff610fa216565b33600081815260016020908152604091829020939093556002548151908152600160a060020a038681169482019490945280820189905260608101889052905186938a1692917f747506b844327a7a28a59a7c306bafc2b7b6d832d40dc3340152617dd174a372919081900360800190a45060028054600190810190915595945050505050565b60025481565b600354600160a060020a031681565b600082821115610fae57fe5b50900390565b81810182811015610fc157fe5b92915050565b60008181526020818152604080832060038101548154600160a060020a031685526001909352922054610fff9163ffffffff610fb416565b8154600160a060020a031660009081526001602081905260408220929092556003830181905560048301805490920190915560059091015550565b604080517f19457468657265756d205369676e6564204d6573736167653a0a333200000000602080830191909152603c80830185905283518084039091018152605c909201928390528151600093918291908401908083835b602083106110b25780518252601f199092019160209182019101611093565b5181516020939093036101000a60001901801990911692169190911790526040519201829003909120959450505050505600a165627a7a72305820fae1a08457b2e442350f0baea415b2d92e60aad475c17cfc61f43f2d4b17a2c50029",
  "source": "pragma solidity ^0.4.24;\n\nimport \"openzeppelin-solidity/contracts/token/ERC20/ERC20.sol\";\nimport \"openzeppelin-solidity/contracts/math/SafeMath.sol\";\n\ncontract MultiPartyEscrow {\n    \n    using SafeMath for uint256;\n    \n    //TODO: we could use uint64 for value, nonce and expiration (it could be cheaper to store but more expensive to operate with)\n    //the full ID of \"atomic\" payment channel = \"[this, channelId, nonce]\"\n    struct PaymentChannel {\n        address sender;      // The account sending payments.\n        address recipient;   // The account receiving the payments.\n        bytes32 groupId;     // id of group of replicas who share the same payment channel\n                             // You should generate groupId randomly in order to prevent\n                             // two PaymentChannel with the same [recipient, groupId]\n        uint256 value;       // Total amount of tokens deposited to the channel. \n        uint256 nonce;       // \"nonce\" of the channel (by changing nonce we effectivly close the old channel ([this, channelId, oldNonce])\n                             //  and open the new channel [this, channelId, newNonce])\n                             //!!! nonce also prevents race conditon between channelClaim and channelExtendAndAddFunds \n        uint256 expiration;  // Timeout (in block numbers) in case the recipient never closes.\n                             // if block.number > expiration then sender can call channelClaimTimeout\n        address signer;     // signer on behalf of sender\n    }\n\n\n    mapping (uint256 => PaymentChannel) public channels;\n    mapping (address => uint256)        public balances; //tokens which have been deposit but haven't been escrowed in the channels\n   \n    uint256 public nextChannelId; //id of the next channel (and size of channels)\n \n    ERC20 public token; // Address of token contract\n    \n\n    // Events\n    event ChannelOpen(uint256 channelId, address indexed sender, address indexed recipient, bytes32 indexed groupId, address signer, uint256 amount, uint256 expiration);\n    event ChannelClaim(uint256 indexed channelId, address indexed recipient, uint256 claimAmount, uint256 sendBackAmount, uint256 keepAmpount);\n    event ChannelSenderClaim(uint256 indexed channelId, uint256 claimAmount);\n    event ChannelExtend(uint256 indexed channelId, uint256 newExpiration);\n    event ChannelAddFunds(uint256 indexed channelId, uint256 additionalFunds);\n    event TransferFunds(address indexed sender, address indexed receiver, uint256 amount);\n\n    constructor (address _token)\n    public\n    {\n        token = ERC20(_token);\n    }\n  \n    function deposit(uint256 value) \n    public\n    returns(bool) \n    {\n        require(token.transferFrom(msg.sender, this, value), \"Unable to transfer token to the contract\"); \n        balances[msg.sender] = balances[msg.sender].add(value);\n        return true;\n    }\n    \n    function withdraw(uint256 value)\n    public\n    returns(bool)\n    {\n        require(balances[msg.sender] >= value);\n        require(token.transfer(msg.sender, value));\n        balances[msg.sender] = balances[msg.sender].sub(value);\n        return true;\n    }\n    \n    function transfer(address receiver, uint256 value)\n    public\n    returns(bool)\n    {\n        require(balances[msg.sender] >= value);\n        balances[msg.sender] = balances[msg.sender].sub(value);\n        balances[receiver] = balances[receiver].add(value);\n\n        emit TransferFunds(msg.sender, receiver, value);\n        return true;\n    }\n    \n    \n    //open a channel, token should be already being deposit\n    //openChannel should be run only once for given sender, recipient, groupId\n    //channel can be reused even after channelClaim(..., isSendback=true)\n    function openChannel(address  recipient, uint256 value, uint256 expiration, bytes32 groupId, address signer) \n    public\n    returns(bool) \n    {\n        require(balances[msg.sender] >= value);\n        require(signer != address(0));\n\n        channels[nextChannelId] = PaymentChannel({\n            sender       : msg.sender,\n            recipient    : recipient,\n            value        : value,\n            groupId      : groupId,\n            nonce        : 0,\n            expiration   : expiration,\n            signer       : signer\n        });\n      \n        balances[msg.sender] = balances[msg.sender].sub(value);  \n        emit ChannelOpen(nextChannelId, msg.sender, recipient, groupId, signer, value, expiration);\n        nextChannelId += 1;\n        return true;\n    }\n    \n\n\n    function depositAndOpenChannel(address  recipient, uint256 value, uint256 expiration, bytes32 groupId, address signer)\n    public\n    returns(bool)\n    {\n        require(deposit(value));\n        require(openChannel(recipient, value, expiration, groupId, signer));\n        return true;\n    }\n\n\n    function _channelSendbackAndReopenSuspended(uint256 channelId)\n    private\n    {\n        PaymentChannel storage channel = channels[channelId];\n\n        balances[channel.sender] = balances[channel.sender].add(channel.value); \n        channel.value            = 0;\n        channel.nonce           += 1;\n        channel.expiration       = 0;\n    }\n\n    /**\n     * @dev function to claim multiple channels at a time. Needs to send limited channels per call\n     * @param channelIds list of channel Ids\n     * @param amounts list of amounts should be aligned with channel ids index\n     * @param isSendbacks list of sendbacks flags\n     * @param v channel senders signatures in V R S for each channel\n     * @param r channel senders signatures in V R S for each channel\n     * @param s channel senders signatures in V R S for each channel\n     */\n    function multiChannelClaim(uint256[] channelIds, uint256[] amounts, bool[] isSendbacks, uint8[] v, bytes32[] r, bytes32[] s) \n    public \n    {\n        uint256 len = channelIds.length;\n        \n        require(amounts.length == len && isSendbacks.length == len && v.length == len && r.length == len && s.length == len);\n        for(uint256 i=0; i<len ; i++) {\n            channelClaim(channelIds[i], amounts[i], v[i], r[i], s[i], isSendbacks[i]);\n        }\n        \n    }\n\n    function channelClaim(uint256 channelId, uint256 amount, uint8 v, bytes32 r, bytes32 s, bool isSendback) \n    public \n    {\n        PaymentChannel storage channel = channels[channelId];\n        require(amount <= channel.value);\n        require(msg.sender == channel.recipient);\n        \n        //compose the message which was signed\n        bytes32 message = prefixed(keccak256(abi.encodePacked(this, channelId, channel.nonce, amount)));\n        // check that the signature is from the signer\n        address signAddress = ecrecover(message, v, r, s);\n        require(signAddress == channel.signer);\n        \n        //transfer amount from the channel to the sender\n        channels[channelId].value = channels[channelId].value.sub(amount);\n        balances[msg.sender]      = balances[msg.sender].add     (amount);\n   \n        if (isSendback)    \n            {\n                _channelSendbackAndReopenSuspended(channelId);\n                emit ChannelClaim(channelId, msg.sender, amount, channels[channelId].value, 0);\n            }\n            else\n            {\n                //reopen new \"channel\", without sending back funds to \"sender\"        \n                channels[channelId].nonce += 1;\n                emit ChannelClaim(channelId, msg.sender, amount, 0, channels[channelId].value);\n            }\n    }\n\n\n\n    /// the sender can extend the expiration at any time\n    function channelExtend(uint256 channelId, uint256 newExpiration) \n    public \n    returns(bool)\n    {\n        PaymentChannel storage channel = channels[channelId];\n\n        require(msg.sender == channel.sender);\n        require(newExpiration >= channel.expiration);\n\n        channels[channelId].expiration = newExpiration;\n        \n        emit ChannelExtend(channelId, newExpiration);\n        return true;\n    }\n    \n    /// the sender could add funds to the channel at any time\n    /// any one can fund the channel irrespective of the sender\n    function channelAddFunds(uint256 channelId, uint256 amount)\n    public\n    returns(bool)\n    {\n        require(balances[msg.sender] >= amount);\n\n        //tranfser amount from sender to the channel\n        balances[msg.sender]      = balances[msg.sender].sub     (amount);\n        channels[channelId].value = channels[channelId].value.add(amount);\n        \n        emit ChannelAddFunds(channelId, amount);\n        return true;\n    }\n\n    function channelExtendAndAddFunds(uint256 channelId, uint256 newExpiration, uint256 amount)\n    public\n    {\n        require(channelExtend(channelId, newExpiration));\n        require(channelAddFunds(channelId, amount));\n    }\n    \n    // sender can claim refund if the timeout is reached \n    function channelClaimTimeout(uint256 channelId) \n    public \n    {\n        require(msg.sender == channels[channelId].sender);\n        require(block.number >= channels[channelId].expiration);\n        _channelSendbackAndReopenSuspended(channelId);\n        \n        emit ChannelSenderClaim(channelId, channels[channelId].value);\n    }\n\n\n    /// builds a prefixed hash to mimic the behavior of ethSign.\n    function prefixed(bytes32 hash) internal pure returns (bytes32) \n    {\n        return keccak256(abi.encodePacked(\"\\x19Ethereum Signed Message:\\n32\", hash));\n    }\n    \n    \n}\n",
  "sourcePath": "/Users/tiero/go/src/github.com/tiero/reputation/adapter/node_modules/singularitynet-platform-contracts/contracts/MultiPartyEscrow.sol",
  "compiler": {
    "name": "solc",
    "version": "0.4.24+commit.e67f0147.Emscripten.clang"
  },
  "schemaVersion": "2.0.1",
  "updatedAt": "2018-11-19T12:51:48.975Z"
}