{
  "contractName": "Registry",
  "abi": [
    {
      "anonymous": false,
      "inputs": [
        {
          "indexed": true,
          "name": "orgName",
          "type": "bytes32"
        }
      ],
      "name": "OrganizationCreated",
      "type": "event"
    },
    {
      "anonymous": false,
      "inputs": [
        {
          "indexed": true,
          "name": "orgName",
          "type": "bytes32"
        }
      ],
      "name": "OrganizationModified",
      "type": "event"
    },
    {
      "anonymous": false,
      "inputs": [
        {
          "indexed": true,
          "name": "orgName",
          "type": "bytes32"
        }
      ],
      "name": "OrganizationDeleted",
      "type": "event"
    },
    {
      "anonymous": false,
      "inputs": [
        {
          "indexed": true,
          "name": "orgName",
          "type": "bytes32"
        },
        {
          "indexed": true,
          "name": "serviceName",
          "type": "bytes32"
        },
        {
          "indexed": false,
          "name": "metadataURI",
          "type": "bytes"
        }
      ],
      "name": "ServiceCreated",
      "type": "event"
    },
    {
      "anonymous": false,
      "inputs": [
        {
          "indexed": true,
          "name": "orgName",
          "type": "bytes32"
        },
        {
          "indexed": true,
          "name": "serviceName",
          "type": "bytes32"
        },
        {
          "indexed": false,
          "name": "metadataURI",
          "type": "bytes"
        }
      ],
      "name": "ServiceMetadataModified",
      "type": "event"
    },
    {
      "anonymous": false,
      "inputs": [
        {
          "indexed": true,
          "name": "orgName",
          "type": "bytes32"
        },
        {
          "indexed": true,
          "name": "serviceName",
          "type": "bytes32"
        }
      ],
      "name": "ServiceTagsModified",
      "type": "event"
    },
    {
      "anonymous": false,
      "inputs": [
        {
          "indexed": true,
          "name": "orgName",
          "type": "bytes32"
        },
        {
          "indexed": true,
          "name": "serviceName",
          "type": "bytes32"
        }
      ],
      "name": "ServiceDeleted",
      "type": "event"
    },
    {
      "anonymous": false,
      "inputs": [
        {
          "indexed": true,
          "name": "orgName",
          "type": "bytes32"
        },
        {
          "indexed": true,
          "name": "typeRepositoryName",
          "type": "bytes32"
        }
      ],
      "name": "TypeRepositoryCreated",
      "type": "event"
    },
    {
      "anonymous": false,
      "inputs": [
        {
          "indexed": true,
          "name": "orgName",
          "type": "bytes32"
        },
        {
          "indexed": true,
          "name": "typeRepositoryName",
          "type": "bytes32"
        }
      ],
      "name": "TypeRepositoryModified",
      "type": "event"
    },
    {
      "anonymous": false,
      "inputs": [
        {
          "indexed": true,
          "name": "orgName",
          "type": "bytes32"
        },
        {
          "indexed": true,
          "name": "typeRepositoryName",
          "type": "bytes32"
        }
      ],
      "name": "TypeRepositoryDeleted",
      "type": "event"
    },
    {
      "constant": false,
      "inputs": [
        {
          "name": "orgName",
          "type": "bytes32"
        },
        {
          "name": "members",
          "type": "address[]"
        }
      ],
      "name": "createOrganization",
      "outputs": [],
      "payable": false,
      "stateMutability": "nonpayable",
      "type": "function"
    },
    {
      "constant": false,
      "inputs": [
        {
          "name": "orgName",
          "type": "bytes32"
        },
        {
          "name": "newOwner",
          "type": "address"
        }
      ],
      "name": "changeOrganizationOwner",
      "outputs": [],
      "payable": false,
      "stateMutability": "nonpayable",
      "type": "function"
    },
    {
      "constant": false,
      "inputs": [
        {
          "name": "orgName",
          "type": "bytes32"
        },
        {
          "name": "newMembers",
          "type": "address[]"
        }
      ],
      "name": "addOrganizationMembers",
      "outputs": [],
      "payable": false,
      "stateMutability": "nonpayable",
      "type": "function"
    },
    {
      "constant": false,
      "inputs": [
        {
          "name": "orgName",
          "type": "bytes32"
        },
        {
          "name": "existingMembers",
          "type": "address[]"
        }
      ],
      "name": "removeOrganizationMembers",
      "outputs": [],
      "payable": false,
      "stateMutability": "nonpayable",
      "type": "function"
    },
    {
      "constant": false,
      "inputs": [
        {
          "name": "orgName",
          "type": "bytes32"
        }
      ],
      "name": "deleteOrganization",
      "outputs": [],
      "payable": false,
      "stateMutability": "nonpayable",
      "type": "function"
    },
    {
      "constant": false,
      "inputs": [
        {
          "name": "orgName",
          "type": "bytes32"
        },
        {
          "name": "serviceName",
          "type": "bytes32"
        },
        {
          "name": "metadataURI",
          "type": "bytes"
        },
        {
          "name": "tags",
          "type": "bytes32[]"
        }
      ],
      "name": "createServiceRegistration",
      "outputs": [],
      "payable": false,
      "stateMutability": "nonpayable",
      "type": "function"
    },
    {
      "constant": false,
      "inputs": [
        {
          "name": "orgName",
          "type": "bytes32"
        },
        {
          "name": "serviceName",
          "type": "bytes32"
        },
        {
          "name": "metadataURI",
          "type": "bytes"
        }
      ],
      "name": "updateServiceRegistration",
      "outputs": [],
      "payable": false,
      "stateMutability": "nonpayable",
      "type": "function"
    },
    {
      "constant": false,
      "inputs": [
        {
          "name": "orgName",
          "type": "bytes32"
        },
        {
          "name": "serviceName",
          "type": "bytes32"
        },
        {
          "name": "tags",
          "type": "bytes32[]"
        }
      ],
      "name": "addTagsToServiceRegistration",
      "outputs": [],
      "payable": false,
      "stateMutability": "nonpayable",
      "type": "function"
    },
    {
      "constant": false,
      "inputs": [
        {
          "name": "orgName",
          "type": "bytes32"
        },
        {
          "name": "serviceName",
          "type": "bytes32"
        },
        {
          "name": "tags",
          "type": "bytes32[]"
        }
      ],
      "name": "removeTagsFromServiceRegistration",
      "outputs": [],
      "payable": false,
      "stateMutability": "nonpayable",
      "type": "function"
    },
    {
      "constant": false,
      "inputs": [
        {
          "name": "orgName",
          "type": "bytes32"
        },
        {
          "name": "serviceName",
          "type": "bytes32"
        }
      ],
      "name": "deleteServiceRegistration",
      "outputs": [],
      "payable": false,
      "stateMutability": "nonpayable",
      "type": "function"
    },
    {
      "constant": false,
      "inputs": [
        {
          "name": "orgName",
          "type": "bytes32"
        },
        {
          "name": "repositoryName",
          "type": "bytes32"
        },
        {
          "name": "repositoryURI",
          "type": "bytes"
        },
        {
          "name": "tags",
          "type": "bytes32[]"
        }
      ],
      "name": "createTypeRepositoryRegistration",
      "outputs": [],
      "payable": false,
      "stateMutability": "nonpayable",
      "type": "function"
    },
    {
      "constant": false,
      "inputs": [
        {
          "name": "orgName",
          "type": "bytes32"
        },
        {
          "name": "repositoryName",
          "type": "bytes32"
        },
        {
          "name": "repositoryURI",
          "type": "bytes"
        }
      ],
      "name": "updateTypeRepositoryRegistration",
      "outputs": [],
      "payable": false,
      "stateMutability": "nonpayable",
      "type": "function"
    },
    {
      "constant": false,
      "inputs": [
        {
          "name": "orgName",
          "type": "bytes32"
        },
        {
          "name": "repositoryName",
          "type": "bytes32"
        },
        {
          "name": "tags",
          "type": "bytes32[]"
        }
      ],
      "name": "addTagsToTypeRepositoryRegistration",
      "outputs": [],
      "payable": false,
      "stateMutability": "nonpayable",
      "type": "function"
    },
    {
      "constant": false,
      "inputs": [
        {
          "name": "orgName",
          "type": "bytes32"
        },
        {
          "name": "repositoryName",
          "type": "bytes32"
        },
        {
          "name": "tags",
          "type": "bytes32[]"
        }
      ],
      "name": "removeTagsFromTypeRepositoryRegistration",
      "outputs": [],
      "payable": false,
      "stateMutability": "nonpayable",
      "type": "function"
    },
    {
      "constant": false,
      "inputs": [
        {
          "name": "orgName",
          "type": "bytes32"
        },
        {
          "name": "repositoryName",
          "type": "bytes32"
        }
      ],
      "name": "deleteTypeRepositoryRegistration",
      "outputs": [],
      "payable": false,
      "stateMutability": "nonpayable",
      "type": "function"
    },
    {
      "constant": true,
      "inputs": [],
      "name": "listOrganizations",
      "outputs": [
        {
          "name": "orgNames",
          "type": "bytes32[]"
        }
      ],
      "payable": false,
      "stateMutability": "view",
      "type": "function"
    },
    {
      "constant": true,
      "inputs": [
        {
          "name": "orgName",
          "type": "bytes32"
        }
      ],
      "name": "getOrganizationByName",
      "outputs": [
        {
          "name": "found",
          "type": "bool"
        },
        {
          "name": "name",
          "type": "bytes32"
        },
        {
          "name": "owner",
          "type": "address"
        },
        {
          "name": "members",
          "type": "address[]"
        },
        {
          "name": "serviceNames",
          "type": "bytes32[]"
        },
        {
          "name": "repositoryNames",
          "type": "bytes32[]"
        }
      ],
      "payable": false,
      "stateMutability": "view",
      "type": "function"
    },
    {
      "constant": true,
      "inputs": [
        {
          "name": "orgName",
          "type": "bytes32"
        }
      ],
      "name": "listServicesForOrganization",
      "outputs": [
        {
          "name": "found",
          "type": "bool"
        },
        {
          "name": "serviceNames",
          "type": "bytes32[]"
        }
      ],
      "payable": false,
      "stateMutability": "view",
      "type": "function"
    },
    {
      "constant": true,
      "inputs": [
        {
          "name": "orgName",
          "type": "bytes32"
        },
        {
          "name": "serviceName",
          "type": "bytes32"
        }
      ],
      "name": "getServiceRegistrationByName",
      "outputs": [
        {
          "name": "found",
          "type": "bool"
        },
        {
          "name": "name",
          "type": "bytes32"
        },
        {
          "name": "metadataURI",
          "type": "bytes"
        },
        {
          "name": "tags",
          "type": "bytes32[]"
        }
      ],
      "payable": false,
      "stateMutability": "view",
      "type": "function"
    },
    {
      "constant": true,
      "inputs": [
        {
          "name": "orgName",
          "type": "bytes32"
        }
      ],
      "name": "listTypeRepositoriesForOrganization",
      "outputs": [
        {
          "name": "found",
          "type": "bool"
        },
        {
          "name": "repositoryNames",
          "type": "bytes32[]"
        }
      ],
      "payable": false,
      "stateMutability": "view",
      "type": "function"
    },
    {
      "constant": true,
      "inputs": [
        {
          "name": "orgName",
          "type": "bytes32"
        },
        {
          "name": "repositoryName",
          "type": "bytes32"
        }
      ],
      "name": "getTypeRepositoryByName",
      "outputs": [
        {
          "name": "found",
          "type": "bool"
        },
        {
          "name": "name",
          "type": "bytes32"
        },
        {
          "name": "repositoryURI",
          "type": "bytes"
        },
        {
          "name": "tags",
          "type": "bytes32[]"
        }
      ],
      "payable": false,
      "stateMutability": "view",
      "type": "function"
    },
    {
      "constant": true,
      "inputs": [],
      "name": "listServiceTags",
      "outputs": [
        {
          "name": "tags",
          "type": "bytes32[]"
        }
      ],
      "payable": false,
      "stateMutability": "view",
      "type": "function"
    },
    {
      "constant": true,
      "inputs": [
        {
          "name": "tag",
          "type": "bytes32"
        }
      ],
      "name": "listServicesForTag",
      "outputs": [
        {
          "name": "orgNames",
          "type": "bytes32[]"
        },
        {
          "name": "serviceNames",
          "type": "bytes32[]"
        }
      ],
      "payable": false,
      "stateMutability": "view",
      "type": "function"
    },
    {
      "constant": true,
      "inputs": [],
      "name": "listTypeRepositoryTags",
      "outputs": [
        {
          "name": "tags",
          "type": "bytes32[]"
        }
      ],
      "payable": false,
      "stateMutability": "view",
      "type": "function"
    },
    {
      "constant": true,
      "inputs": [
        {
          "name": "tag",
          "type": "bytes32"
        }
      ],
      "name": "listTypeRepositoriesForTag",
      "outputs": [
        {
          "name": "orgNames",
          "type": "bytes32[]"
        },
        {
          "name": "repositoryNames",
          "type": "bytes32[]"
        }
      ],
      "payable": false,
      "stateMutability": "view",
      "type": "function"
    },
    {
      "constant": true,
      "inputs": [
        {
          "name": "interfaceID",
          "type": "bytes4"
        }
      ],
      "name": "supportsInterface",
      "outputs": [
        {
          "name": "",
          "type": "bool"
        }
      ],
      "payable": false,
      "stateMutability": "view",
      "type": "function"
    }
  ],
  "bytecode": "0x608060405234801561001057600080fd5b506131ce806100206000396000f3006080604052600436106101535763ffffffff7c0100000000000000000000000000000000000000000000000000000000600035041663013be2e0811461015857806301ffc9a714610182578063080b6ad7146101cd5780632cd49849146101f5578063340d84e51461031e5780633a2cb860146103835780633d408ac0146103fa578063520e855b146104e25780636928848d146104f7578063692c8a921461050f578063781d69d2146105c05780637f9d9c77146105e45780638e07e977146106185780639aad8d9d14610640578063acd298d31461065b578063afab986c14610673578063b72516551461069b578063bb82354f146106b0578063bcb43444146106c8578063ca62968a146106f0578063ca97758c14610718578063cb78728214610733578063d2e544f714610767578063d9219d281461078b578063e443852d146107af578063e5ae53e2146107d3575b600080fd5b34801561016457600080fd5b50610180600480359060248035916044359182019101356107ee565b005b34801561018e57600080fd5b506101b97bffffffffffffffffffffffffffffffffffffffffffffffffffffffff196004351661087b565b604080519115158252519081900360200190f35b3480156101d957600080fd5b506101806004803590602480359160443591820191013561090e565b34801561020157600080fd5b5061020d60043561098d565b6040518087151515158152602001866000191660001916815260200185600160a060020a0316600160a060020a03168152602001806020018060200180602001848103845287818151815260200191508051906020019060200280838360005b8381101561028557818101518382015260200161026d565b50505050905001848103835286818151815260200191508051906020019060200280838360005b838110156102c45781810151838201526020016102ac565b50505050905001848103825285818151815260200191508051906020019060200280838360005b838110156103035781810151838201526020016102eb565b50505050905001995050505050505050505060405180910390f35b34801561032a57600080fd5b50610333610b0b565b60408051602080825283518183015283519192839290830191858101910280838360005b8381101561036f578181015183820152602001610357565b505050509050019250505060405180910390f35b34801561038f57600080fd5b5061039b600435610b65565b604051808315151515815260200180602001828103825283818151815260200191508051906020019060200280838360005b838110156103e55781810151838201526020016103cd565b50505050905001935050505060405180910390f35b34801561040657600080fd5b50610415600435602435610bee565b604080518515158152602080820186905260809282018381528551938301939093528451919291606084019160a08501919087019080838360005b83811015610468578181015183820152602001610450565b50505050905090810190601f1680156104955780820380516001836020036101000a031916815260200191505b508381038252845181528451602091820191808701910280838360005b838110156104ca5781810151838201526020016104b2565b50505050905001965050505050505060405180910390f35b3480156104ee57600080fd5b50610333610d67565b34801561050357600080fd5b50610180600435610dbe565b34801561051b57600080fd5b5061052760043561102e565b604051808060200180602001838103835285818151815260200191508051906020019060200280838360005b8381101561056b578181015183820152602001610553565b50505050905001838103825284818151815260200191508051906020019060200280838360005b838110156105aa578181015183820152602001610592565b5050505090500194505050505060405180910390f35b3480156105cc57600080fd5b506101806004803590602480359081019101356110fb565b3480156105f057600080fd5b5061018060048035906024803591604435808301929082013591606435918201910135611268565b34801561062457600080fd5b50610180600480359060248035916044359182019101356113eb565b34801561064c57600080fd5b50610180600435602435611434565b34801561066757600080fd5b50610527600435611491565b34801561067f57600080fd5b506101806004803590602480359160443591820191013561155e565b3480156106a757600080fd5b506103336115eb565b3480156106bc57600080fd5b5061039b600435611642565b3480156106d457600080fd5b50610180600480359060248035916044359182019101356116c8565b3480156106fc57600080fd5b506101806004803590602480359160443591820191013561176d565b34801561072457600080fd5b506101806004356024356117c6565b34801561073f57600080fd5b5061018060048035906024803591604435808301929082013591606435918201910135611823565b34801561077357600080fd5b50610180600480359060248035908101910135611973565b34801561079757600080fd5b506101806004803590602480359081019101356119f5565b3480156107bb57600080fd5b50610180600435600160a060020a0360243516611a72565b3480156107df57600080fd5b50610415600435602435611adf565b60006107fb856001611c52565b610806856001611d2a565b61081285856001611dcb565b5060005b818110156108475761083f858585858581811061082f57fe5b9050602002013560001916611ec0565b600101610816565b604051849086907fd8b715d9bf49bca034a993b5b934475414e84c904dcbf90dbddd139808b97b0590600090a35050505050565b60007bffffffffffffffffffffffffffffffffffffffffffffffffffffffff1982167f01ffc9a700000000000000000000000000000000000000000000000000000000148061090857507f256b3545000000000000000000000000000000000000000000000000000000007bffffffffffffffffffffffffffffffffffffffffffffffffffffffff198316145b92915050565b610919846001611c52565b610924846001611d2a565b610930848460016121bb565b600084815260016020818152604080842087855260070190915290912061095991018383612e9e565b50604051839085907fea3bcbabd0c9d3dae0474b21e6aeef5b2598eafe710788a0da66a15ffb65f44990600090a350505050565b600081815260016020526040812054819081906060908190819015156109b65760009550610b02565b60008781526001602081815260409283902080548184015460029092018054865181860281018601909752808752949b50909950600160a060020a0390911697509190830182828015610a3257602002820191906000526020600020905b8154600160a060020a03168152600190910190602001808311610a14575b50505060008a81526001602090815260409182902060040180548351818402810184019094528084529598509194919350909150830182828015610a9657602002820191906000526020600020905b81548152600190910190602001808311610a81575b50505060008a81526001602090815260409182902060050180548351818402810184019094528084529597509194919350909150830182828015610afa57602002820191906000526020600020905b81548152600190910190602001808311610ae5575b505050505090505b91939550919395565b60606000805480602002602001604051908101604052809291908181526020018280548015610b5a57602002820191906000526020600020905b81548152600190910190602001808311610b45575b505050505090505b90565b6000818152600160205260408120546060901515610b865760009150610be9565b60008381526001602081815260409283902060040180548451818402810184019095528085529295509190830182828015610be157602002820191906000526020600020905b81548152600190910190602001808311610bcc575b505050505090505b915091565b600082815260016020526040812054819060609081901515610c135760009350610d5e565b60008681526001602090815260408083208884526006019091529020541515610c3f5760009350610d5e565b6000868152600160208181526040808420898552600601825292839020805490830180548551600260001983881615610100020190921691909104601f8101859004850282018501909652858152939850909650919290830182828015610ce75780601f10610cbc57610100808354040283529160200191610ce7565b820191906000526020600020905b815481529060010190602001808311610cca57829003601f168201915b50505060008981526001602090815260408083208b845260060182529182902060020180548351818402810184019094528084529597509194919350909150830182828015610d5657602002820191906000526020600020905b81548152600190910190602001808311610d41575b505050505090505b92959194509250565b60606003805480602002602001604051908101604052809291908181526020018280548015610b5a576020028201919060005260206000209081548152600190910190602001808311610b45575050505050905090565b6000806000806000610dd1866001611c52565b610ddc866000611d2a565b60008681526001602052604090206004015494505b6000851115610e3d5760008681526001602052604090206004018054610e319188916000198901908110610e2157fe5b90600052602060002001546122a6565b60001990940193610df1565b60008681526001602052604090206005015493505b6000841115610e9e5760008681526001602052604090206005018054610e929188916000198801908110610e8257fe5b9060005260206000200154612463565b60001990930192610e52565b60008681526001602052604090206002015492505b6000831115610f095760008681526001602052604090206002018054610efd9188916000198701908110610ee357fe5b600091825260209091200154600160a060020a0316612600565b60001990920191610eb3565b60008681526001602052604081206008015481549093506000198101908110610f2e57fe5b6000918252602082200154815490925082919084908110610f4b57fe5b60009182526020909120015414610f905780600083815481101515610f6c57fe5b60009182526020808320909101929092558281526001909152604090206008018290555b6000805490610fa3906000198301612f1c565b50600086815260016020819052604082208281559081018054600160a060020a031916905590610fd66002830182612f40565b610fe4600483016000612f40565b610ff2600583016000612f40565b50600060089190910181905560405187917fb1dbc279d80967cb8113073651e5919753c82fad7b002581eb7a020eaf89e9a791a2505050505050565b600081815260056020908152604091829020600101805483518184028101840190945280845260609384939092919083018282801561108d57602002820191906000526020600020905b81548152600190910190602001808311611078575b50505060008681526005602090815260409182902060020180548351818402810184019094528084529597509194919350909150830182828015610be1576020028201919060005260206000209081548152600190910190602001808311610bcc5750505050509050915091565b611103612f61565b61110e846000611c52565b60008481526001602081815260409283902084518155848201519281018054600160a060020a031916600160a060020a03909416939093179092559183015180518493611162926002850192910190612fa4565b506060820151805161117e916004840191602090910190613005565b506080820151805161119a916005840191602090910190613005565b5060a0919091015160089182015560008581526001602081815260408084208981558084018054600160a060020a031916331790558454950185905591840183559180527f290decd9548b62a8d60345a988386fc84ba6bc95484008f6362f93160ef3e563909201869055815184820281810183019093528481526112379287928791879182919085019084908082843750612782945050505050565b60405184907f0e7857bfbd020070a2c8d2fe38c788de1e6adc88cb46f60cf6ec7cd385e81db190600090a250505050565b611270613042565b600061127d886001611c52565b611288886001611d2a565b61129488886000611dcb565b868252604080516020601f880181900481028201810190925286815290879087908190840183828082843750505050602080860193845260008c815260018083526040808320600481015460608b01528e8452600601845290912087518155945180518896955061130b945091850192019061306e565b5060408201518051611327916002840191602090910190613005565b50606091909101516004918201556000898152600160208181526040832090930180549182018155825291812090910188905590505b8281101561138e57611386888886868581811061137657fe5b9050602002013560001916612895565b60010161135d565b604080516020808252810187905288918a917f3229c7118d95880b1bb8abc6231f47f1a63d7b1e7e22fbd91a8ccffc9fa75df9918a918a918190810184848082843760405192018290039550909350505050a35050505050505050565b60006113f8856001611c52565b611403856001611d2a565b61140f85856001611dcb565b5060005b818110156108475761142c858585858581811061137657fe5b600101611413565b61143f826001611c52565b61144a826001611d2a565b611456828260016121bb565b6114608282612463565b604051819083907f6ede3bb1e53daa5c72ee70092a3ce9a7dadac03f980fe8726ad2716c7f871d5490600090a35050565b60008181526004602090815260409182902060010180548351818402810184019094528084526060938493909291908301828280156114f057602002820191906000526020600020905b815481526001909101906020018083116114db575b50505060008681526004602090815260409182902060020180548351818402810184019094528084529597509194919350909150830182828015610be1576020028201919060005260206000209081548152600190910190602001808311610bcc5750505050509050915091565b600061156b856001611c52565b611576856001611d2a565b611582858560016121bb565b5060005b818110156115b7576115af858585858581811061159f57fe5b9050602002013560001916612a1f565b600101611586565b604051849086907fea3bcbabd0c9d3dae0474b21e6aeef5b2598eafe710788a0da66a15ffb65f44990600090a35050505050565b60606002805480602002602001604051908101604052809291908181526020018280548015610b5a576020028201919060005260206000209081548152600190910190602001808311610b45575050505050905090565b60008181526001602052604081205460609015156116635760009150610be9565b60008381526001602081815260409283902060050180548451818402810184019095528085529295509190830182828015610be1576020028201919060005260206000209081548152600190910190602001808311610bcc5750505050509050915091565b6116d3846001611c52565b6116de846001611d2a565b6116ea84846001611dcb565b600084815260016020818152604080842087855260060190915290912061171391018383612e9e565b506040805160208082528101839052849186917fb7b13a2b2a9c0147b27815cbec2c7e5ed10588c9d5812211619614c379174c5a91869186918190810184848082843760405192018290039550909350505050a350505050565b600061177a856001611c52565b611785856001611d2a565b611791858560016121bb565b5060005b818110156115b7576117be85858585858181106117ae57fe5b9050602002013560001916612ba4565b600101611795565b6117d1826001611c52565b6117dc826001611d2a565b6117e882826001611dcb565b6117f282826122a6565b604051819083907f3caed2ddcd24bae20b0075a02d974ba3a229dace98271af93ce8c8f3ebd9d27290600090a35050565b61182b613042565b6000611838886001611c52565b611843886001611d2a565b61184f888860006121bb565b60008881526001602081815260408084208b8552600701825290922084518155828501518051869492936118889390850192019061306e565b50604082015180516118a4916002840191602090910190613005565b506060919091015160049091015560008881526001602081815260408084208b85526007019091529091208881556118de91018787612e9e565b505060008781526001602081815260408084206005810180548c875260079092018452918520600401819055838352928301815583528220018790555b8281101561193c57611934888886868581811061159f57fe5b60010161191b565b604051879089907f5124da9b6fa39b72e36fd353b25ddc71861b18c5dcafea15e97a850a1696adbc90600090a35050505050505050565b6000611980846001611c52565b61198b846001611d2a565b5060005b818110156119c4576119bc848484848181106119a757fe5b90506020020135600160a060020a0316612600565b60010161198f565b60405184907f06ccb920be65231f5c9d04dd4883d3c7648ebe5f5317cc7177ee4f4a7cc2d03890600090a250505050565b611a00836001611c52565b611a0b836001611d2a565b611a428383838080602002602001604051908101604052809392919081815260200183836020028082843750612782945050505050565b60405183907f06ccb920be65231f5c9d04dd4883d3c7648ebe5f5317cc7177ee4f4a7cc2d03890600090a2505050565b611a7d826001611c52565b611a88826000611d2a565b60008281526001602081905260408083209091018054600160a060020a031916600160a060020a0385161790555183917f06ccb920be65231f5c9d04dd4883d3c7648ebe5f5317cc7177ee4f4a7cc2d03891a25050565b600082815260016020526040812054819060609081901515611b045760009350610d5e565b60008681526001602090815260408083208884526007019091529020541515611b305760009350610d5e565b6000868152600160208181526040808420898552600701825292839020820180548451601f6002610100848816150260001901909316929092049182018490048402810184019095528085529297508896509190830182828015611bd55780601f10611baa57610100808354040283529160200191611bd5565b820191906000526020600020905b815481529060010190602001808311611bb857829003601f168201915b50505060008981526001602090815260408083208b845260070182529182902060020180548351818402810184019094528084529597509194919350909150830182828015610d56576020028201919060005260206000209081548152600190910190602001808311610d41575050505050905092959194509250565b8015611cc2576000828152600160205260409020541515611cbd576040805160e560020a62461bcd02815260206004820152601260248201527f6f726720646f6573206e6f742065786973740000000000000000000000000000604482015290519081900360640190fd5b611d26565b60008281526001602052604090205415611d26576040805160e560020a62461bcd02815260206004820152601260248201527f6f726720616c7265616479206578697374730000000000000000000000000000604482015290519081900360640190fd5b5050565b60008281526001602081905260409091200154600160a060020a0316331480611d755750808015611d7557506000828152600160209081526040808320338452600301909152812054115b1515611d26576040805160e560020a62461bcd02815260206004820152601760248201527f756e617574686f72697a656420696e766f636174696f6e000000000000000000604482015290519081900360640190fd5b8015611e495760008381526001602090815260408083208584526006019091529020541515611e44576040805160e560020a62461bcd02815260206004820152601660248201527f7365727669636520646f6573206e6f7420657869737400000000000000000000604482015290519081900360640190fd5b611ebb565b600083815260016020908152604080832085845260060190915290205415611ebb576040805160e560020a62461bcd02815260206004820152601660248201527f7365727669636520616c72656164792065786973747300000000000000000000604482015290519081900360640190fd5b505050565b600083815260016020908152604080832085845260060182528083208484526003019091528120548190819081908190156121b15760008881526001602081815260408084208b85526006018083528185208b865260038101845291852090930154938b90529190526002018054919650906000198101908110611f4057fe5b60009182526020808320909101548a83526001825260408084208b8552600601909252912060020154909450600019018514611fde5760008881526001602090815260408083208a84526006019091529020600201805485919087908110611fa457fe5b6000918252602080832090910192909255898152600180835260408083208b84526006018452808320888452600301909352919020018590555b60008881526001602090815260408083208a8452600601909152902060020180549061200e906000198301612f1c565b5060008881526001602081815260408084208b855260060182528084208a85526003018252808420600201546004909252909220015490955060001901925082851461213657600086815260046020526040902060010180548490811061207157fe5b6000918252602080832090910154888352600490915260409091206002018054919350908490811061209f57fe5b60009182526020808320909101548883526004909152604090912060010180549192508391879081106120ce57fe5b60009182526020808320909101929092558781526004909152604090206002018054829190879081106120fd57fe5b60009182526020808320909101929092558381526001825260408082208483526006018352808220898352600301909252206002018590555b6000868152600460205260409020600101805490612158906000198301612f1c565b50600086815260046020526040902060020180549061217b906000198301612f1c565b5060008881526001602081815260408084208b855260060182528084208a85526003019091528220828155908101829055600201555b5050505050505050565b80156122345760008381526001602090815260408083208584526007019091529020541515611e44576040805160e560020a62461bcd02815260206004820152601860248201527f74797065207265706f20646f6573206e6f742065786973740000000000000000604482015290519081900360640190fd5b600083815260016020908152604080832085845260070190915290205415611ebb576040805160e560020a62461bcd02815260206004820152601860248201527f74797065207265706f20616c7265616479206578697374730000000000000000604482015290519081900360640190fd5b600082815260016020908152604080832084845260060190915281206002015490805b60008311156123265760008581526001602090815260408083208784526006019091529020600201805461231a918791879190600019880190811061230a57fe5b9060005260206000200154611ec0565b600019909201916122c9565b6000858152600160208181526040808420888552600681018352908420600490810154948a90529290915201805491935090600019810190811061236657fe5b600091825260208083209091015487835260019091526040909120600401805491925082918490811061239557fe5b600091825260209091200154146123f45760008581526001602052604090206004018054829190849081106123c657fe5b6000918252602080832090910192909255868152600182526040808220848352600601909252206004018290555b6000858152600160205260409020600401805490612416906000198301612f1c565b50600085815260016020818152604080842088855260060190915282208281559190612444908301826130dc565b612452600283016000612f40565b600482016000905550505050505050565b600082815260016020908152604080832084845260070190915281206002015490805b60008311156124e3576000858152600160209081526040808320878452600701909152902060020180546124d791879187919060001988019081106124c757fe5b9060005260206000200154612ba4565b60001990920191612486565b60008581526001602081815260408084208885526007810183529084206004015493899052919052600501805491935090600019810190811061252257fe5b600091825260208083209091015487835260019091526040909120600501805491925082918490811061255157fe5b600091825260209091200154146125b057600085815260016020526040902060050180548291908490811061258257fe5b6000918252602080832090910192909255868152600182526040808220848352600701909252206004018290555b60008581526001602052604090206005018054906125d2906000198301612f1c565b50600085815260016020818152604080842088855260070190915282208281559190612444908301826130dc565b6000828152600160209081526040808320600160a060020a038516845260030190915281205481901561277c576000848152600160208181526040808420600160a060020a03881685526003810183529084205493889052919052600201805491935090600019810190811061267257fe5b6000918252602080832090910154868352600190915260409091206002018054600160a060020a039092169250829160001985019081106126af57fe5b600091825260209091200154600160a060020a031614612732576000848152600160205260409020600201805482919060001985019081106126ed57fe5b60009182526020808320919091018054600160a060020a031916600160a060020a03948516179055868252600181526040808320938516835260039093019052208290555b6000848152600160205260409020600201805490612754906000198301612f1c565b506000848152600160209081526040808320600160a060020a03871684526003019091528120555b50505050565b60005b8151811015611ebb5760008381526001602052604081208351600390910191908490849081106127b157fe5b90602001906020020151600160a060020a0316600160a060020a03168152602001908152602001600020546000141561288d576000838152600160205260409020825160029091019083908390811061280657fe5b60209081029190910181015182546001808201855560009485528385209091018054600160a060020a031916600160a060020a03909316929092179091558583529052604081206002810154845190926003909201919085908590811061286957fe5b6020908102909101810151600160a060020a03168252810191909152604001600020555b600101612785565b61289d613120565b6128a5613140565b600085815260016020908152604080832087845260060182528083208684526003019091529020541515612a18576000858152600160208181526040808420888552600601825280842087855260038101835281852087840151818601908155888401516002808401918255928b90559190920180549092556004845291852080850154909255805493840181558452908320909101859055908490525460ff1615156129dd57600180825260008481526004602090815260409091208351815460ff191690151517815581840151805185949293612988938501920190613005565b50604082015180516129a4916002840191602090910190613005565b5050600280546001810182556000919091527f405787fa12a823e0f2b7631cc41b3ba8828b3321ca811111fa75cd3aa3bb5ace01849055505b600083815260046020908152604082206001808201805480830182559085528385200189905560029091018054918201815583529120018490555b5050505050565b612a27613120565b612a2f613140565b600085815260016020908152604080832087845260070182528083208684526003019091529020541515612a18576000858152600160208181526040808420888552600701825280842087855260038101835281852087840151818601908155888401516002808401918255928b90559190920180549092556005845291852080850154909255805493840181558452908320909101859055908490525460ff161515612b6757600180825260008481526005602090815260409091208351815460ff191690151517815581840151805185949293612b12938501920190613005565b5060408201518051612b2e916002840191602090910190613005565b5050600380546001810182556000919091527fc2575a0e9e593c00f959f8c92f12db2869c3395a3b0502d05e2516446f71f85b01849055505b5050600090815260056020908152604082206001808201805480830182559085528385200195909555600201805494850181558252902090910155565b600083815260016020908152604080832085845260070182528083208484526003019091528120548190819081908190156121b15760008881526001602081815260408084208b85526007018083528185208b865260038101845291852090930154938b90529190526002018054919650906000198101908110612c2457fe5b60009182526020808320909101548a83526001825260408084208b8552600701909252912060020154909450600019018514612cc25760008881526001602090815260408083208a84526007019091529020600201805485919087908110612c8857fe5b6000918252602080832090910192909255898152600180835260408083208b84526007018452808320888452600301909352919020018590555b60008881526001602090815260408083208a84526007019091529020600201805490612cf2906000198301612f1c565b5060008881526001602081815260408084208b855260070182528084208a855260030182528084206002015460059092529092200154909550600019019250828514612e1a576000868152600560205260409020600101805484908110612d5557fe5b60009182526020808320909101548883526005909152604090912060020180549193509084908110612d8357fe5b6000918252602080832090910154888352600590915260409091206001018054919250839187908110612db257fe5b6000918252602080832090910192909255878152600590915260409020600201805482919087908110612de157fe5b60009182526020808320909101929092558381526001825260408082208483526007018352808220898352600301909252206002018590555b6000868152600560205260409020600101805490612e3c906000198301612f1c565b506000868152600560205260409020600201805490612e5f906000198301612f1c565b5060008881526001602081815260408084208b855260070182528084208a85526003019091528220828155908101829055600201555050505050505050565b828054600181600116156101000203166002900490600052602060002090601f016020900481019282601f10612edf5782800160ff19823516178555612f0c565b82800160010185558215612f0c579182015b82811115612f0c578235825591602001919060010190612ef1565b50612f18929150613164565b5090565b815481835581811115611ebb57600083815260209020611ebb918101908301613164565b5080546000825590600052602060002090810190612f5e9190613164565b50565b60c060405190810160405280600080191681526020016000600160a060020a03168152602001606081526020016060815260200160608152602001600081525090565b828054828255906000526020600020908101928215612ff9579160200282015b82811115612ff95782518254600160a060020a031916600160a060020a03909116178255602090920191600190910190612fc4565b50612f1892915061317e565b828054828255906000526020600020908101928215612f0c579160200282015b82811115612f0c5782518255602090920191600190910190613025565b608060405190810160405280600080191681526020016060815260200160608152602001600081525090565b828054600181600116156101000203166002900490600052602060002090601f016020900481019282601f106130af57805160ff1916838001178555612f0c565b82800160010185558215612f0c579182015b82811115612f0c5782518255916020019190600101906130c1565b50805460018160011615610100020316600290046000825580601f106131025750612f5e565b601f016020900490600052602060002090810190612f5e9190613164565b604080516060810182526000808252602082018190529181019190915290565b60606040519081016040528060001515815260200160608152602001606081525090565b610b6291905b80821115612f18576000815560010161316a565b610b6291905b80821115612f18578054600160a060020a03191681556001016131845600a165627a7a72305820a28245e3590ee9adb4478f384a0b65782ba1aebb210677bbef020cb812f0bd0d0029",
  "source": "pragma solidity ^0.4.24;\n\nimport \"openzeppelin-solidity/contracts/introspection/ERC165.sol\";\nimport \"./IRegistry.sol\";\n\ncontract Registry is IRegistry, ERC165 {\n\n    struct OrganizationRegistration {\n        bytes32 organizationName;\n        address owner;\n\n        // member indexing note:\n        // case (members[someAddress]) of\n        //   0 -> not a member of this org\n        //   n -> member of this org, and memberKeys[n-1] == someAddress\n        address[] memberKeys;\n        mapping(address => uint) members;\n\n        bytes32[] serviceKeys;\n        bytes32[] typeRepoKeys;\n        mapping(bytes32 => ServiceRegistration) servicesByName;\n        mapping(bytes32 => TypeRepositoryRegistration) typeReposByName;\n\n        uint globalOrgIndex;\n    }\n\n    struct ServiceRegistration {\n        bytes32 serviceName;\n        bytes   metadataURI;   //Service metadata. metadataURI should contain information for data consistency \n                               //validation (for example hash). We support: IPFS URI.\n        bytes32[] tags;\n        mapping(bytes32 => Tag) tagsByName;\n\n        uint orgServiceIndex;\n    }\n\n    struct TypeRepositoryRegistration {\n        bytes32 repositoryName;\n        bytes   repositoryURI;\n\n        bytes32[] tags;\n        mapping(bytes32 => Tag) tagsByName;\n\n        uint orgTypeRepoIndex;\n    }\n\n    struct Tag {\n        bytes32 tagName;\n        uint itemTagIndex;\n        uint globalTagIndex;\n    }\n\n    struct ServiceOrTypeRepositoryList {\n        bool valid;\n        bytes32[] orgNames;\n        bytes32[] itemNames;\n    }\n\n    bytes32[] orgKeys;\n    mapping(bytes32 => OrganizationRegistration) orgsByName;\n\n    bytes32[] serviceTags;\n    bytes32[] typeRepoTags;\n    mapping(bytes32 => ServiceOrTypeRepositoryList) servicesByTag;\n    mapping(bytes32 => ServiceOrTypeRepositoryList) typeReposByTag;\n\n    /**\n      * @dev Guard function that forces a revert if the tx sender is unauthorized.\n      *      Always authorizes org owner. Can also authorize org members.\n      *\n      * @param membersAllowed if true, revert when sender is non-owner and non-member, else revert when sender is non-owner\n      */\n    function requireAuthorization(bytes32 orgName, bool membersAllowed) internal view {\n        require(msg.sender == orgsByName[orgName].owner || (membersAllowed && orgsByName[orgName].members[msg.sender] > 0)\n            , \"unauthorized invocation\");\n    }\n\n    /**\n      * @dev Guard function that forces a revert if the referenced org does not meet an existence criteria.\n      *\n      * @param exists if true, revert when org does not exist, else revert when org exists\n      */\n    function requireOrgExistenceConstraint(bytes32 orgName, bool exists) internal view {\n        if (exists) {\n            require(orgsByName[orgName].organizationName != bytes32(0x0), \"org does not exist\");\n        } else {\n            require(orgsByName[orgName].organizationName == bytes32(0x0), \"org already exists\");\n        }\n    }\n\n    /**\n      * @dev Guard function that forces a revert if the referenced service does not meet an existence criteria.\n      *\n      * @param exists if true, revert when service does not exist, else revert when service exists\n      */\n    function requireServiceExistenceConstraint(bytes32 orgName, bytes32 serviceName, bool exists) internal view {\n        if (exists) {\n            require(orgsByName[orgName].servicesByName[serviceName].serviceName != bytes32(0x0), \"service does not exist\");\n        } else {\n            require(orgsByName[orgName].servicesByName[serviceName].serviceName == bytes32(0x0), \"service already exists\");\n        }\n    }\n\n    /**\n      * @dev Guard function that forces a revert if the referenced type repository does not meet an existence criteria.\n      *\n      * @param exists if true, revert when type repo does not exist, else revert when type repo exists\n      */\n    function requireTypeRepositoryExistenceConstraint(bytes32 orgName, bytes32 repositoryName, bool exists) internal view {\n        if (exists) {\n            require(orgsByName[orgName].typeReposByName[repositoryName].repositoryName != bytes32(0x0), \"type repo does not exist\");\n        } else {\n            require(orgsByName[orgName].typeReposByName[repositoryName].repositoryName == bytes32(0x0), \"type repo already exists\");\n        }\n    }\n\n    //    ___                        _          _   _                   __  __                 _\n    //   / _ \\ _ __ __ _  __ _ _ __ (_)______ _| |_(_) ___  _ __       |  \\/  | __ _ _ __ ___ | |_\n    //  | | | | '__/ _` |/ _` | '_ \\| |_  / _` | __| |/ _ \\| '_ \\      | |\\/| |/ _` | '_ ` _ \\| __|\n    //  | |_| | | | (_| | (_| | | | | |/ / (_| | |_| | (_) | | | |     | |  | | (_| | | | | | | |_\n    //   \\___/|_|  \\__, |\\__,_|_| |_|_/___\\__,_|\\__|_|\\___/|_| |_|     |_|  |_|\\__, |_| |_| |_|\\__|\n    //             |___/                                                       |___/\n\n    function createOrganization(bytes32 orgName, address[] members) external {\n\n        requireOrgExistenceConstraint(orgName, false);\n\n        OrganizationRegistration memory organization;\n        orgsByName[orgName] = organization;\n        orgsByName[orgName].organizationName = orgName;\n        orgsByName[orgName].owner = msg.sender;\n        orgsByName[orgName].globalOrgIndex = orgKeys.length;\n        orgKeys.push(orgName);\n\n        addOrganizationMembersInternal(orgName, members);\n\n        emit OrganizationCreated(orgName);\n    }\n\n    function changeOrganizationOwner(bytes32 orgName, address newOwner) external {\n\n        requireOrgExistenceConstraint(orgName, true);\n        requireAuthorization(orgName, false);\n\n        orgsByName[orgName].owner = newOwner;\n\n        emit OrganizationModified(orgName);\n    }\n\n    function addOrganizationMembers(bytes32 orgName, address[] newMembers) external {\n\n        requireOrgExistenceConstraint(orgName, true);\n        requireAuthorization(orgName, true);\n\n        addOrganizationMembersInternal(orgName, newMembers);\n\n        emit OrganizationModified(orgName);\n    }\n\n    function addOrganizationMembersInternal(bytes32 orgName, address[] newMembers) internal {\n        for (uint i = 0; i < newMembers.length; i++) {\n            if (orgsByName[orgName].members[newMembers[i]] == 0) {\n                orgsByName[orgName].memberKeys.push(newMembers[i]);\n                orgsByName[orgName].members[newMembers[i]] = orgsByName[orgName].memberKeys.length;\n            }\n        }\n    }\n\n    function removeOrganizationMembers(bytes32 orgName, address[] existingMembers) external {\n\n        requireOrgExistenceConstraint(orgName, true);\n        requireAuthorization(orgName, true);\n\n        for (uint i = 0; i < existingMembers.length; i++) {\n            removeOrganizationMemberInternal(orgName, existingMembers[i]);\n        }\n\n        emit OrganizationModified(orgName);\n    }\n\n    function removeOrganizationMemberInternal(bytes32 orgName, address existingMember) internal {\n        // see \"member indexing note\"\n        if (orgsByName[orgName].members[existingMember] != 0) {\n            uint storedIndexToRemove = orgsByName[orgName].members[existingMember];\n            address memberToMove = orgsByName[orgName].memberKeys[orgsByName[orgName].memberKeys.length - 1];\n\n            // no-op if we are deleting the last entry\n            if (orgsByName[orgName].memberKeys[storedIndexToRemove - 1] != memberToMove) {\n                // swap lut entries\n                orgsByName[orgName].memberKeys[storedIndexToRemove - 1] = memberToMove;\n                orgsByName[orgName].members[memberToMove] = storedIndexToRemove;\n            }\n\n            // shorten keys array\n            orgsByName[orgName].memberKeys.length--;\n\n            // delete the mapping entry\n            delete orgsByName[orgName].members[existingMember];\n        }\n    }\n\n    function deleteOrganization(bytes32 orgName) external {\n\n        requireOrgExistenceConstraint(orgName, true);\n        requireAuthorization(orgName, false);\n\n        for (uint serviceIndex = orgsByName[orgName].serviceKeys.length; serviceIndex > 0; serviceIndex--) {\n            deleteServiceRegistrationInternal(orgName, orgsByName[orgName].serviceKeys[serviceIndex-1]);\n        }\n\n        for (uint repoIndex = orgsByName[orgName].typeRepoKeys.length; repoIndex > 0; repoIndex--) {\n            deleteTypeRepositoryRegistrationInternal(orgName, orgsByName[orgName].typeRepoKeys[repoIndex-1]);\n        }\n\n        for (uint memberIndex = orgsByName[orgName].memberKeys.length; memberIndex > 0; memberIndex--) {\n            removeOrganizationMemberInternal(orgName, orgsByName[orgName].memberKeys[memberIndex-1]);\n        }\n\n        // swap lut entries\n        uint    indexToUpdate = orgsByName[orgName].globalOrgIndex;\n        bytes32 orgToUpdate   = orgKeys[orgKeys.length-1];\n\n        if (orgKeys[indexToUpdate] != orgToUpdate) {\n            orgKeys[indexToUpdate] = orgToUpdate;\n            orgsByName[orgToUpdate].globalOrgIndex = indexToUpdate;\n        }\n\n        // shorten keys array\n        orgKeys.length--;\n\n        // delete contents of organization registration\n        delete orgsByName[orgName];\n\n        emit OrganizationDeleted(orgName);\n    }\n\n    //   ____                  _                __  __                 _\n    //  / ___|  ___ _ ____   ___) ___ ___      |  \\/  | __ _ _ __ ___ | |_\n    //  \\___ \\ / _ \\ '__\\ \\ / / |/ __/ _ \\     | |\\/| |/ _` | '_ ` _ \\| __|\n    //   ___) |  __/ |   \\ V /| | (__  __/     | |  | | (_| | | | | | | |_\n    //  |____/ \\___|_|    \\_/ |_|\\___\\___|     |_|  |_|\\__, |_| |_| |_|\\__|\n    //                                                 |___/\n\n    function createServiceRegistration(bytes32 orgName, bytes32 serviceName, bytes metadataURI, bytes32[] tags) external {\n\n        requireOrgExistenceConstraint(orgName, true);\n        requireAuthorization(orgName, true);\n        requireServiceExistenceConstraint(orgName, serviceName, false);\n\n        ServiceRegistration memory service;\n        service.serviceName     = serviceName;\n        service.metadataURI     = metadataURI;\n        service.orgServiceIndex = orgsByName[orgName].serviceKeys.length;\n        orgsByName[orgName].servicesByName[serviceName] = service;\n        orgsByName[orgName].serviceKeys.push(serviceName);\n\n        for (uint i = 0; i < tags.length; i++) {\n            addTagToServiceRegistration(orgName, serviceName, tags[i]);\n        }\n\n        emit ServiceCreated(orgName, serviceName, metadataURI);\n    }\n\n    function updateServiceRegistration(bytes32 orgName, bytes32 serviceName, bytes metadataURI) external {\n\n        requireOrgExistenceConstraint(orgName, true);\n        requireAuthorization(orgName, true);\n        requireServiceExistenceConstraint(orgName, serviceName, true);\n\n        orgsByName[orgName].servicesByName[serviceName].metadataURI = metadataURI;\n\n        emit ServiceMetadataModified(orgName, serviceName, metadataURI);\n    }\n\n    function addTagsToServiceRegistration(bytes32 orgName, bytes32 serviceName, bytes32[] tags) external {\n\n        requireOrgExistenceConstraint(orgName, true);\n        requireAuthorization(orgName, true);\n        requireServiceExistenceConstraint(orgName, serviceName, true);\n\n        for (uint i = 0; i < tags.length; i++) {\n            addTagToServiceRegistration(orgName, serviceName, tags[i]);\n        }\n\n        emit ServiceTagsModified(orgName, serviceName);\n    }\n\n    function addTagToServiceRegistration(bytes32 orgName, bytes32 serviceName, bytes32 tagName) internal {\n\n        // no-op if tag already exists\n        if (orgsByName[orgName].servicesByName[serviceName].tagsByName[tagName].tagName == bytes32(0x0)) {\n            // add the tag to the service level tag index\n            Tag memory tagObj;\n            orgsByName[orgName].servicesByName[serviceName].tagsByName[tagName] = tagObj;\n            orgsByName[orgName].servicesByName[serviceName].tagsByName[tagName].tagName = tagName;\n            orgsByName[orgName].servicesByName[serviceName].tagsByName[tagName].itemTagIndex = orgsByName[orgName].servicesByName[serviceName].tags.length;\n            orgsByName[orgName].servicesByName[serviceName].tagsByName[tagName].globalTagIndex = servicesByTag[tagName].orgNames.length;\n            orgsByName[orgName].servicesByName[serviceName].tags.push(tagName);\n\n            // add the service to the global tag index creating a list object for this tag if it does not already exist\n            if (!servicesByTag[tagName].valid) {\n                ServiceOrTypeRepositoryList memory listObj;\n                listObj.valid = true;\n                servicesByTag[tagName] = listObj;\n                serviceTags.push(tagName);\n            }\n\n            servicesByTag[tagName].orgNames.push(orgName);\n            servicesByTag[tagName].itemNames.push(serviceName);\n        }\n    }\n\n    function removeTagsFromServiceRegistration(bytes32 orgName, bytes32 serviceName, bytes32[] tags) external {\n\n        requireOrgExistenceConstraint(orgName, true);\n        requireAuthorization(orgName, true);\n        requireServiceExistenceConstraint(orgName, serviceName, true);\n\n        for (uint i = 0; i < tags.length; i++) {\n            removeTagFromServiceRegistration(orgName, serviceName, tags[i]);\n        }\n\n        emit ServiceTagsModified(orgName, serviceName);\n    }\n\n    function removeTagFromServiceRegistration(bytes32 orgName, bytes32 serviceName, bytes32 tagName) internal {\n\n        // no-op if tag does not exist\n        if (orgsByName[orgName].servicesByName[serviceName].tagsByName[tagName].tagName != bytes32(0x0)) {\n\n            // swap service registration lut entries\n            uint tagIndexToReplace = orgsByName[orgName].servicesByName[serviceName].tagsByName[tagName].itemTagIndex;\n            bytes32 tagNameToMove = orgsByName[orgName].servicesByName[serviceName].tags[orgsByName[orgName].servicesByName[serviceName].tags.length-1];\n\n            // no-op if we are deleting the last item\n            if (tagIndexToReplace != orgsByName[orgName].servicesByName[serviceName].tags.length-1) {\n                orgsByName[orgName].servicesByName[serviceName].tags[tagIndexToReplace] = tagNameToMove;\n                orgsByName[orgName].servicesByName[serviceName].tagsByName[tagNameToMove].itemTagIndex = tagIndexToReplace;\n            }\n\n            orgsByName[orgName].servicesByName[serviceName].tags.length--;\n\n            // swap global tag index lut entries\n            tagIndexToReplace = orgsByName[orgName].servicesByName[serviceName].tagsByName[tagName].globalTagIndex;\n            uint tagIndexToMove = servicesByTag[tagName].orgNames.length-1;\n\n            // no-op if we are deleting the last item\n            if (tagIndexToMove != tagIndexToReplace) {\n                bytes32 orgNameToMove  = servicesByTag[tagName].orgNames[tagIndexToMove];\n                bytes32 itemNameToMove = servicesByTag[tagName].itemNames[tagIndexToMove];\n\n                servicesByTag[tagName].orgNames[tagIndexToReplace] = orgNameToMove;\n                servicesByTag[tagName].itemNames[tagIndexToReplace] = itemNameToMove;\n\n                orgsByName[orgNameToMove].servicesByName[itemNameToMove].tagsByName[tagName].globalTagIndex = tagIndexToReplace;\n            }\n\n            servicesByTag[tagName].orgNames.length--;\n            servicesByTag[tagName].itemNames.length--;\n\n            // delete contents of the tag entry\n            delete orgsByName[orgName].servicesByName[serviceName].tagsByName[tagName];\n        }\n    }\n\n    function deleteServiceRegistration(bytes32 orgName, bytes32 serviceName) external {\n\n        requireOrgExistenceConstraint(orgName, true);\n        requireAuthorization(orgName, true);\n        requireServiceExistenceConstraint(orgName, serviceName, true);\n\n        deleteServiceRegistrationInternal(orgName, serviceName);\n\n        emit ServiceDeleted(orgName, serviceName);\n    }\n\n    function deleteServiceRegistrationInternal(bytes32 orgName, bytes32 serviceName) internal {\n        // delete the tags associated with the service\n        for (uint i = orgsByName[orgName].servicesByName[serviceName].tags.length; i > 0; i--) {\n            removeTagFromServiceRegistration(orgName, serviceName, orgsByName[orgName].servicesByName[serviceName].tags[i-1]);\n        }\n\n        // swap lut entries\n        uint    indexToUpdate   = orgsByName[orgName].servicesByName[serviceName].orgServiceIndex;\n        bytes32 serviceToUpdate = orgsByName[orgName].serviceKeys[orgsByName[orgName].serviceKeys.length-1];\n\n        if (orgsByName[orgName].serviceKeys[indexToUpdate] != serviceToUpdate) {\n            orgsByName[orgName].serviceKeys[indexToUpdate] = serviceToUpdate;\n            orgsByName[orgName].servicesByName[serviceToUpdate].orgServiceIndex = indexToUpdate;\n        }\n\n        orgsByName[orgName].serviceKeys.length--;\n\n        // delete contents of service registration\n        delete orgsByName[orgName].servicesByName[serviceName];\n    }\n\n    //   _____                        ____                        __  __                 _\n    //  |_   _|   _ _ __   ___       |  _ \\ ___ _ __   ___       |  \\/  | __ _ _ __ ___ | |_\n    //    | || | | | '_ \\ / _ \\      | |_) / _ \\ '_ \\ / _ \\      | |\\/| |/ _` | '_ ` _ \\| __|\n    //    | || |_| | |_) |  __/      |  _ <  __/ |_) | (_) |     | |  | | (_| | | | | | | |_\n    //    |_| \\__, | .__/ \\___|      |_| \\_\\___| .__/ \\___/      |_|  |_|\\__, |_| |_| |_|\\__|\n    //        |___/|_|                         |_|                       |___/\n\n    function createTypeRepositoryRegistration(bytes32 orgName, bytes32 repositoryName,\n            bytes repositoryURI, bytes32[] tags) external {\n\n        requireOrgExistenceConstraint(orgName, true);\n        requireAuthorization(orgName, true);\n        requireTypeRepositoryExistenceConstraint(orgName, repositoryName, false);\n\n        TypeRepositoryRegistration memory typeRepo;\n        orgsByName[orgName].typeReposByName[repositoryName] = typeRepo;\n        orgsByName[orgName].typeReposByName[repositoryName].repositoryName = repositoryName;\n        orgsByName[orgName].typeReposByName[repositoryName].repositoryURI = repositoryURI;\n        orgsByName[orgName].typeReposByName[repositoryName].orgTypeRepoIndex = orgsByName[orgName].typeRepoKeys.length;\n        orgsByName[orgName].typeRepoKeys.push(repositoryName);\n\n        for (uint i = 0; i < tags.length; i++) {\n            addTagToTypeRepositoryRegistration(orgName, repositoryName, tags[i]);\n        }\n\n        emit TypeRepositoryCreated(orgName, repositoryName);\n    }\n\n    function updateTypeRepositoryRegistration(bytes32 orgName, bytes32 repositoryName,\n        bytes repositoryURI) external {\n\n        requireOrgExistenceConstraint(orgName, true);\n        requireAuthorization(orgName, true);\n        requireTypeRepositoryExistenceConstraint(orgName, repositoryName, true);\n\n        orgsByName[orgName].typeReposByName[repositoryName].repositoryURI = repositoryURI;\n\n        emit TypeRepositoryModified(orgName, repositoryName);\n    }\n\n    function addTagsToTypeRepositoryRegistration(bytes32 orgName, bytes32 repositoryName, bytes32[] tags) external {\n\n        requireOrgExistenceConstraint(orgName, true);\n        requireAuthorization(orgName, true);\n        requireTypeRepositoryExistenceConstraint(orgName, repositoryName, true);\n\n        for (uint i = 0; i < tags.length; i++) {\n            addTagToTypeRepositoryRegistration(orgName, repositoryName, tags[i]);\n        }\n\n        emit TypeRepositoryModified(orgName, repositoryName);\n    }\n\n    function addTagToTypeRepositoryRegistration(bytes32 orgName, bytes32 repositoryName, bytes32 tagName) internal {\n\n        // no-op if tag already exists\n        if (orgsByName[orgName].typeReposByName[repositoryName].tagsByName[tagName].tagName == bytes32(0x0)) {\n            // add the tag to the type repository level tag index\n            Tag memory tagObj;\n            orgsByName[orgName].typeReposByName[repositoryName].tagsByName[tagName] = tagObj;\n            orgsByName[orgName].typeReposByName[repositoryName].tagsByName[tagName].tagName = tagName;\n            orgsByName[orgName].typeReposByName[repositoryName].tagsByName[tagName].itemTagIndex = orgsByName[orgName].typeReposByName[repositoryName].tags.length;\n            orgsByName[orgName].typeReposByName[repositoryName].tagsByName[tagName].globalTagIndex = typeReposByTag[tagName].orgNames.length;\n            orgsByName[orgName].typeReposByName[repositoryName].tags.push(tagName);\n\n            // add the type repository to the global tag index creating a list object for this tag if it does not already exist\n            if (!typeReposByTag[tagName].valid) {\n                ServiceOrTypeRepositoryList memory listObj;\n                listObj.valid = true;\n                typeReposByTag[tagName] = listObj;\n                typeRepoTags.push(tagName);\n            }\n            typeReposByTag[tagName].orgNames.push(orgName);\n            typeReposByTag[tagName].itemNames.push(repositoryName);\n        }\n    }\n\n    function removeTagsFromTypeRepositoryRegistration(bytes32 orgName, bytes32 repositoryName, bytes32[] tags) external {\n\n        requireOrgExistenceConstraint(orgName, true);\n        requireAuthorization(orgName, true);\n        requireTypeRepositoryExistenceConstraint(orgName, repositoryName, true);\n\n        for (uint i = 0; i < tags.length; i++) {\n            removeTagFromTypeRepositoryRegistration(orgName, repositoryName, tags[i]);\n        }\n\n        emit TypeRepositoryModified(orgName, repositoryName);\n    }\n\n    function removeTagFromTypeRepositoryRegistration(bytes32 orgName, bytes32 repositoryName, bytes32 tagName) internal {\n\n        // no-op if tag doesnt exist\n        if (orgsByName[orgName].typeReposByName[repositoryName].tagsByName[tagName].tagName != bytes32(0x0)) {\n\n            // swap type repository registration lut entries\n            uint tagIndexToReplace = orgsByName[orgName].typeReposByName[repositoryName].tagsByName[tagName].itemTagIndex;\n            bytes32 tagNameToMove = orgsByName[orgName].typeReposByName[repositoryName].tags[orgsByName[orgName].typeReposByName[repositoryName].tags.length-1];\n\n            // no-op if we are deleting the last item\n            if (tagIndexToReplace != orgsByName[orgName].typeReposByName[repositoryName].tags.length-1) {\n\n                orgsByName[orgName].typeReposByName[repositoryName].tags[tagIndexToReplace] = tagNameToMove;\n                orgsByName[orgName].typeReposByName[repositoryName].tagsByName[tagNameToMove].itemTagIndex = tagIndexToReplace;\n            }\n\n            orgsByName[orgName].typeReposByName[repositoryName].tags.length--;\n\n            // swap global tag index lut entries\n            tagIndexToReplace = orgsByName[orgName].typeReposByName[repositoryName].tagsByName[tagName].globalTagIndex;\n            uint tagIndexToMove = typeReposByTag[tagName].orgNames.length-1;\n\n            // no-op if we are deleting the last item\n            if (tagIndexToMove != tagIndexToReplace) {\n                bytes32 orgNameToMove  = typeReposByTag[tagName].orgNames[tagIndexToMove];\n                bytes32 repoNameToMove = typeReposByTag[tagName].itemNames[tagIndexToMove];\n\n                typeReposByTag[tagName].orgNames[tagIndexToReplace]  = orgNameToMove;\n                typeReposByTag[tagName].itemNames[tagIndexToReplace] = repoNameToMove;\n\n                orgsByName[orgNameToMove].typeReposByName[repoNameToMove].tagsByName[tagName].globalTagIndex = tagIndexToReplace;\n            }\n\n            typeReposByTag[tagName].orgNames.length--;\n            typeReposByTag[tagName].itemNames.length--;\n\n            // delete contents of the tag entry\n            delete orgsByName[orgName].typeReposByName[repositoryName].tagsByName[tagName];\n        }\n    }\n\n    function deleteTypeRepositoryRegistration(bytes32 orgName, bytes32 repositoryName) external {\n\n        requireOrgExistenceConstraint(orgName, true);\n        requireAuthorization(orgName, true);\n        requireTypeRepositoryExistenceConstraint(orgName, repositoryName, true);\n\n        deleteTypeRepositoryRegistrationInternal(orgName, repositoryName);\n\n        emit TypeRepositoryDeleted(orgName, repositoryName);\n    }\n\n    function deleteTypeRepositoryRegistrationInternal(bytes32 orgName, bytes32 repositoryName) internal {\n\n        // delete the tags associated with the type repo\n        for (uint i = orgsByName[orgName].typeReposByName[repositoryName].tags.length; i > 0; i--) {\n            removeTagFromTypeRepositoryRegistration(orgName, repositoryName, orgsByName[orgName].typeReposByName[repositoryName].tags[i-1]);\n        }\n\n        // swap lut entries\n        uint    indexToUpdate    = orgsByName[orgName].typeReposByName[repositoryName].orgTypeRepoIndex;\n        bytes32 typeRepoToUpdate = orgsByName[orgName].typeRepoKeys[orgsByName[orgName].typeRepoKeys.length-1];\n\n        // no-op if we are deleting the last item\n        if (orgsByName[orgName].typeRepoKeys[indexToUpdate] != typeRepoToUpdate) {\n            orgsByName[orgName].typeRepoKeys[indexToUpdate] = typeRepoToUpdate;\n            orgsByName[orgName].typeReposByName[typeRepoToUpdate].orgTypeRepoIndex = indexToUpdate;\n        }\n\n        orgsByName[orgName].typeRepoKeys.length--;\n\n        // delete contents of repo registration\n        delete orgsByName[orgName].typeReposByName[repositoryName];\n    }\n\n    //    ____      _   _\n    //   / ___| ___| |_| |_ ___ _ __ ___\n    //  | |  _ / _ \\ __| __/ _ \\ '__/ __|\n    //  | |_| |  __/ |_| |_  __/ |  \\__ \\\n    //   \\____|\\___|\\__|\\__\\___|_|  |___/\n    //\n\n    function listOrganizations() external view returns (bytes32[] orgNames) {\n        return orgKeys;\n    }\n\n    function getOrganizationByName(bytes32 orgName) external view\n            returns(bool found, bytes32 name, address owner, address[] members, bytes32[] serviceNames, bytes32[] repositoryNames) {\n\n        // check to see if this organization exists\n        if(orgsByName[orgName].organizationName == bytes32(0x0)) {\n            found = false;\n            return;\n        }\n\n        found = true;\n        name = orgsByName[orgName].organizationName;\n        owner = orgsByName[orgName].owner;\n        members = orgsByName[orgName].memberKeys;\n        serviceNames = orgsByName[orgName].serviceKeys;\n        repositoryNames = orgsByName[orgName].typeRepoKeys;\n    }\n\n    function listServicesForOrganization(bytes32 orgName) external view returns (bool found, bytes32[] serviceNames) {\n\n        // check to see if this organization exists\n        if(orgsByName[orgName].organizationName == bytes32(0x0)) {\n            found = false;\n            return;\n        }\n\n        found = true;\n        serviceNames = orgsByName[orgName].serviceKeys;\n    }\n\n    function getServiceRegistrationByName(bytes32 orgName, bytes32 serviceName) external view\n            returns (bool found, bytes32 name, bytes metadataURI, bytes32[] tags) {\n\n        // check to see if this organization exists\n        if(orgsByName[orgName].organizationName == bytes32(0x0)) {\n            found = false;\n            return;\n        }\n\n        // check to see if this repo exists\n        if(orgsByName[orgName].servicesByName[serviceName].serviceName == bytes32(0x0)) {\n            found = false;\n            return;\n        }\n\n        found        = true;\n        name         = orgsByName[orgName].servicesByName[serviceName].serviceName;\n        metadataURI  = orgsByName[orgName].servicesByName[serviceName].metadataURI;\n        tags         = orgsByName[orgName].servicesByName[serviceName].tags;\n    }\n\n    function listTypeRepositoriesForOrganization(bytes32 orgName) external view returns (bool found, bytes32[] repositoryNames) {\n\n        // check to see if this organization exists\n        if(orgsByName[orgName].organizationName == bytes32(0x0)) {\n            found = false;\n            return;\n        }\n\n        found = true;\n        repositoryNames = orgsByName[orgName].typeRepoKeys;\n    }\n\n    function getTypeRepositoryByName(bytes32 orgName, bytes32 repositoryName) external view\n            returns (bool found, bytes32 name, bytes repositoryURI, bytes32[] tags) {\n\n        // check to see if this organization exists\n        if(orgsByName[orgName].organizationName == bytes32(0x0)) {\n            found = false;\n            return;\n        }\n\n        // check to see if this repo exists\n        if(orgsByName[orgName].typeReposByName[repositoryName].repositoryName == bytes32(0x0)) {\n            found = false;\n            return;\n        }\n\n        found = true;\n        name = repositoryName;\n        repositoryURI = orgsByName[orgName].typeReposByName[repositoryName].repositoryURI;\n        tags = orgsByName[orgName].typeReposByName[repositoryName].tags;\n    }\n\n    function listServiceTags() external view returns (bytes32[] tags) {\n        return serviceTags;\n    }\n\n    function listServicesForTag(bytes32 tag) external view returns (bytes32[] orgNames, bytes32[] serviceNames) {\n        orgNames = servicesByTag[tag].orgNames;\n        serviceNames = servicesByTag[tag].itemNames;\n    }\n\n    function listTypeRepositoryTags() external view returns (bytes32[] tags) {\n        return typeRepoTags;\n    }\n\n    function listTypeRepositoriesForTag(bytes32 tag) external view returns (bytes32[] orgNames, bytes32[] repositoryNames) {\n        orgNames = typeReposByTag[tag].orgNames;\n        repositoryNames = typeReposByTag[tag].itemNames;\n    }\n\n    // ERC165: https://eips.ethereum.org/EIPS/eip-165\n    function supportsInterface(bytes4 interfaceID) external view returns (bool) {\n        return\n            interfaceID == this.supportsInterface.selector || // ERC165\n            interfaceID == 0x256b3545; // IRegistry\n    }\n}\n",
  "sourcePath": "/Users/tiero/go/src/github.com/tiero/reputation/adapter/node_modules/singularitynet-platform-contracts/contracts/Registry.sol",
  "compiler": {
    "name": "solc",
    "version": "0.4.24+commit.e67f0147.Emscripten.clang"
  },
  "schemaVersion": "2.0.1",
  "updatedAt": "2018-11-19T12:52:27.075Z"
}